{
  "contractName": "RockPaperScissors",
  "abi": [
    {
      "constant": true,
      "inputs": [],
      "name": "minWage",
      "outputs": [
        {
          "name": "",
          "type": "uint256"
        }
      ],
      "payable": false,
      "stateMutability": "view",
      "type": "function"
    },
    {
      "constant": true,
      "inputs": [
        {
          "name": "",
          "type": "uint256"
        }
      ],
      "name": "players",
      "outputs": [
        {
          "name": "",
          "type": "address"
        }
      ],
      "payable": false,
      "stateMutability": "view",
      "type": "function"
    },
    {
      "inputs": [
        {
          "name": "_minWage",
          "type": "uint256"
        }
      ],
      "payable": false,
      "stateMutability": "nonpayable",
      "type": "constructor"
    },
    {
      "anonymous": false,
      "inputs": [
        {
          "indexed": false,
          "name": "log",
          "type": "string"
        }
      ],
      "name": "Log",
      "type": "event"
    },
    {
      "constant": false,
      "inputs": [
        {
          "name": "move",
          "type": "uint256"
        },
        {
          "name": "_payoutAfterWin",
          "type": "bool"
        }
      ],
      "name": "enter",
      "outputs": [
        {
          "name": "succes",
          "type": "bool"
        }
      ],
      "payable": true,
      "stateMutability": "payable",
      "type": "function"
    },
    {
      "constant": false,
      "inputs": [],
      "name": "play",
      "outputs": [
        {
          "name": "success",
          "type": "bool"
        }
      ],
      "payable": true,
      "stateMutability": "payable",
      "type": "function"
    },
    {
      "constant": true,
      "inputs": [],
      "name": "getRegisteredPlayers",
      "outputs": [
        {
          "name": "_players",
          "type": "address[]"
        }
      ],
      "payable": false,
      "stateMutability": "view",
      "type": "function"
    }
  ],
  "bytecode": "0x60806040526002604051908082528060200260200182016040528015620000355781602001602082028038833980820191505090505b50600190805190602001906200004d92919062000182565b503480156200005b57600080fd5b50604051602080620014f3833981018060405281019080805190602001909291905050506000805a9150600083111515620000fe576040517f08c379a000000000000000000000000000000000000000000000000000000000815260040180806020018281038252601e8152602001807f4d696e696d756d207761676572206d757374206265206e6f6e207a65726f000081525060200191505060405180910390fd5b82600281905550336000806101000a81548173ffffffffffffffffffffffffffffffffffffffff021916908373ffffffffffffffffffffffffffffffffffffffff1602179055506000600560006101000a81548160ff021916908360018111156200016557fe5b02179055505a905060028183030260038190555050505062000257565b828054828255906000526020600020908101928215620001fe579160200282015b82811115620001fd5782518260006101000a81548173ffffffffffffffffffffffffffffffffffffffff021916908373ffffffffffffffffffffffffffffffffffffffff16021790555091602001919060010190620001a3565b5b5090506200020d919062000211565b5090565b6200025491905b808211156200025057600081816101000a81549073ffffffffffffffffffffffffffffffffffffffff02191690555060010162000218565b5090565b90565b61128c80620002676000396000f30060806040526004361061006d576000357c0100000000000000000000000000000000000000000000000000000000900463ffffffff1680631a8e2514146100725780638c3eee2a146100de57806393e84cd914610109578063ac3736c11461012b578063f71d96cb1461016f575b600080fd5b34801561007e57600080fd5b506100876101dc565b6040518080602001828103825283818151815260200191508051906020019060200280838360005b838110156100ca5780820151818401526020810190506100af565b505050509050019250505060405180910390f35b3480156100ea57600080fd5b506100f361026a565b6040518082815260200191505060405180910390f35b610111610270565b604051808215151515815260200191505060405180910390f35b610155600480360381019080803590602001909291908035151590602001909291905050506106c7565b604051808215151515815260200191505060405180910390f35b34801561017b57600080fd5b5061019a60048036038101908080359060200190929190505050610f09565b604051808273ffffffffffffffffffffffffffffffffffffffff1673ffffffffffffffffffffffffffffffffffffffff16815260200191505060405180910390f35b6060600180548060200260200160405190810160405280929190818152602001828054801561026057602002820191906000526020600020905b8160009054906101000a900473ffffffffffffffffffffffffffffffffffffffff1673ffffffffffffffffffffffffffffffffffffffff1681526020019060010190808311610216575b5050505050905090565b60025481565b600061027a61123c565b61028261123c565b60018081111561028e57fe5b600560009054906101000a900460ff1660018111156102a957fe5b14151561036a576040517f08c379a00000000000000000000000000000000000000000000000000000000081526004018080602001828103825260458152602001807f47616d65206973206e6f7420726561647920746f20626520706c61796564202d81526020017f2070726f6261626c792077616974696e6720666f7220706c617965727320746f81526020017f206a6f696e00000000000000000000000000000000000000000000000000000081525060600191505060405180910390fd5b6000809054906101000a900473ffffffffffffffffffffffffffffffffffffffff1673ffffffffffffffffffffffffffffffffffffffff163373ffffffffffffffffffffffffffffffffffffffff16141515610454576040517f08c379a00000000000000000000000000000000000000000000000000000000081526004018080602001828103825260338152602001807f6f6e6c79206f776e65722063616e2073746172742074686520706c617920616e81526020017f6420646563696465207468652077696e6e65720000000000000000000000000081525060400191505060405180910390fd5b600460006001600081548110151561046857fe5b9060005260206000200160009054906101000a900473ffffffffffffffffffffffffffffffffffffffff1673ffffffffffffffffffffffffffffffffffffffff1673ffffffffffffffffffffffffffffffffffffffff1681526020019081526020016000206060604051908101604052908160008201548152602001600182015481526020016002820160009054906101000a900460ff16151515158152505091506004600060018081548110151561051d57fe5b9060005260206000200160009054906101000a900473ffffffffffffffffffffffffffffffffffffffff1673ffffffffffffffffffffffffffffffffffffffff1673ffffffffffffffffffffffffffffffffffffffff1681526020019081526020016000206060604051908101604052908160008201548152602001600182015481526020016002820160009054906101000a900460ff16151515158152505090508060200151826020015114156105d857600192506106c2565b600182602001511480156105f0575060028160200151145b8061060f57506002826020015114801561060e575060018160200151145b5b156106255761062060028383610f47565b6106bd565b6001826020015114801561063d575060038160200151145b8061065c57506003826020015114801561065b575060018160200151145b5b156106725761066d60018383610f47565b6106bc565b6002826020015114801561068a575060038160200151145b806106a95750600382602001511480156106a8575060028160200151145b5b156106bb576106ba60038383610f47565b5b5b5b600192505b505090565b6000806106d261123c565b7fcf34ef537ac33ee1ac626ca1587a0a7e8e51561e5514f8cb36afa1c5102b3bab6040518080602001828103825260158152602001807f496e7369646520656e7465722066756e6374696f6e000000000000000000000081525060200191505060405180910390a1600254341115156107d9576040517f08c379a00000000000000000000000000000000000000000000000000000000081526004018080602001828103825260308152602001807f506c617965722773207761676572206d7573742062652067726561746572207481526020017f68616e206d696e696d756d20776167650000000000000000000000000000000081525060400191505060405180910390fd5b6107e285611089565b1515610856576040517f08c379a000000000000000000000000000000000000000000000000000000000815260040180806020018281038252601a8152602001807f506c617965722773206d6f7665206973206e6f742076616c696400000000000081525060200191505060405180910390fd5b3391506000600181111561086657fe5b600560009054906101000a900460ff16600181111561088157fe5b1415610c9957600073ffffffffffffffffffffffffffffffffffffffff16600160008154811015156108af57fe5b9060005260206000200160009054906101000a900473ffffffffffffffffffffffffffffffffffffffff1673ffffffffffffffffffffffffffffffffffffffff161415610a0b576109393360018081548110151561090957fe5b9060005260206000200160009054906101000a900473ffffffffffffffffffffffffffffffffffffffff166110bd565b15156109ad576040517f08c379a000000000000000000000000000000000000000000000000000000000815260040180806020018281038252601e8152602001807f596f752063616e6e6f7420626520626f74682074686520706c6179657273000081525060200191505060405180910390fd5b81600160008154811015156109be57fe5b9060005260206000200160006101000a81548173ffffffffffffffffffffffffffffffffffffffff021916908373ffffffffffffffffffffffffffffffffffffffff160217905550610bfd565b600073ffffffffffffffffffffffffffffffffffffffff16600180815481101515610a3257fe5b9060005260206000200160009054906101000a900473ffffffffffffffffffffffffffffffffffffffff1673ffffffffffffffffffffffffffffffffffffffff161415610b8e57610abd60016000815481101515610a8c57fe5b9060005260206000200160009054906101000a900473ffffffffffffffffffffffffffffffffffffffff16336110bd565b1515610b31576040517f08c379a000000000000000000000000000000000000000000000000000000000815260040180806020018281038252601e8152602001807f596f752063616e6e6f7420626520626f74682074686520706c6179657273000081525060200191505060405180910390fd5b81600180815481101515610b4157fe5b9060005260206000200160006101000a81548173ffffffffffffffffffffffffffffffffffffffff021916908373ffffffffffffffffffffffffffffffffffffffff160217905550610bfc565b6040517f08c379a000000000000000000000000000000000000000000000000000000000815260040180806020018281038252601b8152602001807f616c726561647920706c61796572732061726520706c6179696e67000000000081525060200191505060405180910390fd5b5b606060405190810160405280348152602001868152602001851515815250905080600460008473ffffffffffffffffffffffffffffffffffffffff1673ffffffffffffffffffffffffffffffffffffffff168152602001908152602001600020600082015181600001556020820151816001015560408201518160020160006101000a81548160ff021916908315150217905550905050610df6565b3373ffffffffffffffffffffffffffffffffffffffff1660016000815481101515610cc057fe5b9060005260206000200160009054906101000a900473ffffffffffffffffffffffffffffffffffffffff1673ffffffffffffffffffffffffffffffffffffffff161480610d7157503373ffffffffffffffffffffffffffffffffffffffff16600180815481101515610d2e57fe5b9060005260206000200160009054906101000a900473ffffffffffffffffffffffffffffffffffffffff1673ffffffffffffffffffffffffffffffffffffffff16145b15610d8757610d8233348787611107565b610df5565b6040517f08c379a000000000000000000000000000000000000000000000000000000000815260040180806020018281038252601b8152602001807f616c726561647920706c61796572732061726520706c6179696e67000000000081525060200191505060405180910390fd5b5b600073ffffffffffffffffffffffffffffffffffffffff1660016000815481101515610e1e57fe5b9060005260206000200160009054906101000a900473ffffffffffffffffffffffffffffffffffffffff1673ffffffffffffffffffffffffffffffffffffffff1614158015610ed35750600073ffffffffffffffffffffffffffffffffffffffff16600180815481101515610e8f57fe5b9060005260206000200160009054906101000a900473ffffffffffffffffffffffffffffffffffffffff1673ffffffffffffffffffffffffffffffffffffffff1614155b15610efd576001600560006101000a81548160ff02191690836001811115610ef757fe5b02179055505b60019250505092915050565b600181815481101515610f1857fe5b906000526020600020016000915054906101000a900473ffffffffffffffffffffffffffffffffffffffff1681565b8282602001511415610fee57816040015115610fe95760016000815481101515610f6d57fe5b9060005260206000200160009054906101000a900473ffffffffffffffffffffffffffffffffffffffff1673ffffffffffffffffffffffffffffffffffffffff166108fc82600001518460000151019081150290604051600060405180830381858888f19350505050158015610fe7573d6000803e3d6000fd5b505b611084565b8060400151156110835760018081548110151561100757fe5b9060005260206000200160009054906101000a900473ffffffffffffffffffffffffffffffffffffffff1673ffffffffffffffffffffffffffffffffffffffff166108fc82600001518460000151019081150290604051600060405180830381858888f19350505050158015611081573d6000803e3d6000fd5b505b5b505050565b6000600182148061109a5750600282145b806110a55750600382145b156110b357600190506110b8565b600090505b919050565b60008173ffffffffffffffffffffffffffffffffffffffff168373ffffffffffffffffffffffffffffffffffffffff1614156110fc5760009050611101565b600190505b92915050565b3073ffffffffffffffffffffffffffffffffffffffff166108fc849081150290604051600060405180830381858888f1935050505015801561114d573d6000803e3d6000fd5b5082600460008673ffffffffffffffffffffffffffffffffffffffff1673ffffffffffffffffffffffffffffffffffffffff1681526020019081526020016000206000018190555081600460008673ffffffffffffffffffffffffffffffffffffffff1673ffffffffffffffffffffffffffffffffffffffff1681526020019081526020016000206001018190555080600460008673ffffffffffffffffffffffffffffffffffffffff1673ffffffffffffffffffffffffffffffffffffffff16815260200190815260200160002060020160006101000a81548160ff02191690831515021790555050505050565b606060405190810160405280600081526020016000815260200160001515815250905600a165627a7a72305820db096f6254f3202897292afad48d5fc2b4258d90259303ac4abe33cc981981ac0029",
  "source": "pragma solidity ^0.4.6;\n\ncontract RockPaperScissors {\n\n    address owner;\n    address[] public players = new address[](2);\n    uint public minWage;\n    uint txFee;\n\n    enum GameState {WaitForPlayers, ReadyForGame}\n\n    struct Playerdata {\n        uint wager;\n        uint move;\n        bool payoutAfterWin;\n    }\n    mapping(address=>Playerdata) playerWager;\n\n\n    GameState gameState;\n\n    event Log(string log);\n\n    constructor(uint _minWage) public {\n        uint gasBefore = gasleft();\n        require(_minWage>0,\"Minimum wager must be non zero\");\n        minWage = _minWage;\n        owner = msg.sender;\n        gameState = GameState.WaitForPlayers;\n        uint gasAfter = gasleft();\n        txFee = (gasBefore - gasAfter)*2;\n    }\n\n    function enter(uint move, bool _payoutAfterWin) public payable returns (bool succes) {\n        emit Log(\"Inside enter function\");\n        require(msg.value>minWage, \"Player's wager must be greater than minimum wage\");\n        require(isValidMove(move), \"Player's move is not valid\");\n\n        address player = msg.sender;\n        //when players didnt join\n        if(gameState == GameState.WaitForPlayers) {\n            if(players[0] == address(0)){\n                if(!isValidPlayer(msg.sender, players[1])){\n                    revert(\"You cannot be both the players\");\n                }\n                players[0] = player;\n            } else if(players[1] == address(0x0)){\n                if(!isValidPlayer(players[0], msg.sender)){\n                    revert(\"You cannot be both the players\");\n                }\n                players[1] = player;\n            } else {\n                revert(\"already players are playing\");\n            }\n            //take the wager from the player and transfer to this contract\n            //address(this).transfer(msg.value);\n            Playerdata memory data = Playerdata(msg.value, move, _payoutAfterWin);\n            // data.wager = msg.value;\n            // data.move = move;\n            // data.payoutAfterWin = _payoutAfterWin;\n            playerWager[player] = data;\n        } else {\n            //Players have already joined and decided to continue the game\n            if(players[0] == msg.sender || players[1] == msg.sender) {\n                updatePlayerWager(msg.sender, msg.value, move, _payoutAfterWin);\n            } else {\n                revert(\"already players are playing\");\n            }\n        }\n\n        if(players[0] != address(0x0) && players[1] != address(0x0)){\n            gameState = GameState.ReadyForGame;\n        }\n\n        return true;\n    }\n\n    function play() public payable returns (bool success){\n        require((gameState == GameState.ReadyForGame), \"Game is not ready to be played - probably waiting for players to join\");\n        //1->Rock , 2->Paper, 3->Scissors\n        //we shall follow the above conventions for deciding the winner\n        // combination -> winner\n        // 1,2 || 2,1-> 2\n        // 1,3 || 3,1 -> 1\n        // 2,3 || 3,2 -> 3\n        // 1,1 ; 2,2 ; 3,3 -> contract gets the bounty\n        require(msg.sender == owner, \"only owner can start the play and decide the winner\");\n        Playerdata memory player1 = playerWager[players[0]];\n        Playerdata memory player2 = playerWager[players[1]];\n        if( (player1.move == player2.move ) ) {\n            //contract gets the bounty\n            return true;\n         } else if ( (player1.move == 1 && player2.move == 2) ||\n                    (player1.move == 2 && player2.move == 1)\n                ){\n            //whoever with 2 is the winner\n            determineWinnerAndPay(2, player1, player2);\n        } else if ( (player1.move == 1 && player2.move == 3) ||\n                    (player1.move == 3 && player2.move == 1)\n                ){\n            //whoever with 1 is the winner\n            determineWinnerAndPay(1, player1, player2);\n        } else if ( (player1.move == 2 && player2.move == 3) ||\n                    (player1.move == 3 && player2.move == 2)\n                ){\n            //whoever with 3 is the winner\n            determineWinnerAndPay(3, player1, player2);\n        }\n        return true;\n    }\n\n    function isValidMove(uint move) private pure returns (bool isValid) {\n        if(move == 1 || move == 2 || move == 3) {\n            return true;\n        }\n        return false;\n    } \n\n    function isValidPlayer(address player1, address player2) private pure returns (bool isValid) {\n        if(player1 == player2){\n            return false;\n        }\n        return true;\n    } \n\n    function updatePlayerWager(address player, uint amount, uint move, bool _payoutAfterWin) private  {\n        address(this).transfer(amount);\n        playerWager[player].wager = amount;\n        playerWager[player].move = move;    \n        playerWager[player].payoutAfterWin = _payoutAfterWin;\n    }\n\n    function determineWinnerAndPay(uint winningMove, Playerdata player1, Playerdata player2) private {\n        if(player1.move == winningMove) {\n            if(player1.payoutAfterWin){\n                players[0].transfer(player1.wager + player2.wager);\n            }\n        } else {\n            if(player2.payoutAfterWin){\n                players[1].transfer(player1.wager + player2.wager);\n            }\n        }\n    }\n\n    function getRegisteredPlayers() public view returns ( address[] _players) {\n        return players;\n    }\n}",
  "sourcePath": "/home/mohanerra/ethereum-training/DAPPS/rockpaperscissors/contracts/RockPaperScissors.sol",
  "compiler": {
    "name": "solc",
    "version": "0.4.24+commit.e67f0147.Emscripten.clang"
  },
  "schemaVersion": "2.0.1",
  "updatedAt": "2018-09-02T03:24:01.931Z"
}